{
  "_format": "hh-sol-artifact-1",
  "contractName": "backend",
  "sourceName": "contracts/backend.sol",
  "abi": [
    {
      "inputs": [],
      "stateMutability": "nonpayable",
      "type": "constructor"
    },
    {
      "inputs": [],
      "name": "getHello",
      "outputs": [
        {
          "internalType": "string",
          "name": "",
          "type": "string"
        }
      ],
      "stateMutability": "view",
      "type": "function"
    },
    {
      "inputs": [],
      "name": "getSay",
      "outputs": [
        {
          "internalType": "string",
          "name": "",
          "type": "string"
        }
      ],
      "stateMutability": "view",
      "type": "function"
    },
    {
      "inputs": [],
      "name": "hello",
      "outputs": [
        {
          "internalType": "string",
          "name": "",
          "type": "string"
        }
      ],
      "stateMutability": "view",
      "type": "function"
    },
    {
      "inputs": [],
      "name": "say",
      "outputs": [
        {
          "internalType": "string",
          "name": "",
          "type": "string"
        }
      ],
      "stateMutability": "view",
      "type": "function"
    }
  ],
  "bytecode": "0x60806040523480156200001157600080fd5b506040518060400160405280600a81526020017f48656c6c6f2055736572000000000000000000000000000000000000000000008152506000908162000058919062000320565b506040518060400160405280601481526020017f4e69636520746f206d65657420796f7520616c6c000000000000000000000000815250600190816200009f919062000320565b5062000407565b600081519050919050565b7f4e487b7100000000000000000000000000000000000000000000000000000000600052604160045260246000fd5b7f4e487b7100000000000000000000000000000000000000000000000000000000600052602260045260246000fd5b600060028204905060018216806200012857607f821691505b6020821081036200013e576200013d620000e0565b5b50919050565b60008190508160005260206000209050919050565b60006020601f8301049050919050565b600082821b905092915050565b600060088302620001a87fffffffffffffffffffffffffffffffffffffffffffffffffffffffffffffffff8262000169565b620001b4868362000169565b95508019841693508086168417925050509392505050565b6000819050919050565b6000819050919050565b600062000201620001fb620001f584620001cc565b620001d6565b620001cc565b9050919050565b6000819050919050565b6200021d83620001e0565b620002356200022c8262000208565b84845462000176565b825550505050565b600090565b6200024c6200023d565b6200025981848462000212565b505050565b5b8181101562000281576200027560008262000242565b6001810190506200025f565b5050565b601f821115620002d0576200029a8162000144565b620002a58462000159565b81016020851015620002b5578190505b620002cd620002c48562000159565b8301826200025e565b50505b505050565b600082821c905092915050565b6000620002f560001984600802620002d5565b1980831691505092915050565b6000620003108383620002e2565b9150826002028217905092915050565b6200032b82620000a6565b67ffffffffffffffff811115620003475762000346620000b1565b5b6200035382546200010f565b6200036082828562000285565b600060209050601f83116001811462000398576000841562000383578287015190505b6200038f858262000302565b865550620003ff565b601f198416620003a88662000144565b60005b82811015620003d257848901518255600182019150602085019450602081019050620003ab565b86831015620003f25784890151620003ee601f891682620002e2565b8355505b6001600288020188555050505b505050505050565b61045180620004176000396000f3fe608060405234801561001057600080fd5b506004361061004c5760003560e01c806319ff1d21146100515780638da9b7721461006f578063954ab4b21461008d578063bc8533bd146100ab575b600080fd5b6100596100c9565b6040516100669190610399565b60405180910390f35b610077610157565b6040516100849190610399565b60405180910390f35b6100956101e9565b6040516100a29190610399565b60405180910390f35b6100b3610277565b6040516100c09190610399565b60405180910390f35b600080546100d6906103ea565b80601f0160208091040260200160405190810160405280929190818152602001828054610102906103ea565b801561014f5780601f106101245761010080835404028352916020019161014f565b820191906000526020600020905b81548152906001019060200180831161013257829003601f168201915b505050505081565b606060008054610166906103ea565b80601f0160208091040260200160405190810160405280929190818152602001828054610192906103ea565b80156101df5780601f106101b4576101008083540402835291602001916101df565b820191906000526020600020905b8154815290600101906020018083116101c257829003601f168201915b5050505050905090565b600180546101f6906103ea565b80601f0160208091040260200160405190810160405280929190818152602001828054610222906103ea565b801561026f5780601f106102445761010080835404028352916020019161026f565b820191906000526020600020905b81548152906001019060200180831161025257829003601f168201915b505050505081565b606060018054610286906103ea565b80601f01602080910402602001604051908101604052809291908181526020018280546102b2906103ea565b80156102ff5780601f106102d4576101008083540402835291602001916102ff565b820191906000526020600020905b8154815290600101906020018083116102e257829003601f168201915b5050505050905090565b600081519050919050565b600082825260208201905092915050565b60005b83811015610343578082015181840152602081019050610328565b60008484015250505050565b6000601f19601f8301169050919050565b600061036b82610309565b6103758185610314565b9350610385818560208601610325565b61038e8161034f565b840191505092915050565b600060208201905081810360008301526103b38184610360565b905092915050565b7f4e487b7100000000000000000000000000000000000000000000000000000000600052602260045260246000fd5b6000600282049050600182168061040257607f821691505b602082108103610415576104146103bb565b5b5091905056fea26469706673582212204f3d69f961e4d312fde43020c32dbe08c97245c35d70f6304fa149b5ce58220d64736f6c63430008130033",
  "linkReferences": {},
  "deployedLinkReferences": {}
}