{
  "_format": "hh-sol-artifact-1",
  "contractName": "backend",
  "sourceName": "contracts/backend.sol",
  "abi": [
    {
      "inputs": [
        {
          "internalType": "string",
          "name": "_say",
          "type": "string"
        }
      ],
      "stateMutability": "nonpayable",
      "type": "constructor"
    },
    {
      "inputs": [],
      "name": "getHello",
      "outputs": [
        {
          "internalType": "string",
          "name": "",
          "type": "string"
        }
      ],
      "stateMutability": "view",
      "type": "function"
    },
    {
      "inputs": [],
      "name": "getSay",
      "outputs": [
        {
          "internalType": "string",
          "name": "",
          "type": "string"
        }
      ],
      "stateMutability": "view",
      "type": "function"
    },
    {
      "inputs": [],
      "name": "hello",
      "outputs": [
        {
          "internalType": "string",
          "name": "",
          "type": "string"
        }
      ],
      "stateMutability": "view",
      "type": "function"
    },
    {
      "inputs": [],
      "name": "say",
      "outputs": [
        {
          "internalType": "string",
          "name": "",
          "type": "string"
        }
      ],
      "stateMutability": "view",
      "type": "function"
    },
    {
      "inputs": [
        {
          "internalType": "string",
          "name": "_say",
          "type": "string"
        }
      ],
      "name": "setSay",
      "outputs": [],
      "stateMutability": "nonpayable",
      "type": "function"
    }
  ],
  "bytecode": "0x60806040523480156200001157600080fd5b5060405162000ff338038062000ff383398181016040528101906200003791906200022a565b6040518060400160405280600a81526020017f48656c6c6f205573657200000000000000000000000000000000000000000000815250600090816200007d9190620004c6565b5080600190816200008f9190620004c6565b5050620005ad565b6000604051905090565b600080fd5b600080fd5b600080fd5b600080fd5b6000601f19601f8301169050919050565b7f4e487b7100000000000000000000000000000000000000000000000000000000600052604160045260246000fd5b6200010082620000b5565b810181811067ffffffffffffffff82111715620001225762000121620000c6565b5b80604052505050565b60006200013762000097565b9050620001458282620000f5565b919050565b600067ffffffffffffffff821115620001685762000167620000c6565b5b6200017382620000b5565b9050602081019050919050565b60005b83811015620001a057808201518184015260208101905062000183565b60008484015250505050565b6000620001c3620001bd846200014a565b6200012b565b905082815260208101848484011115620001e257620001e1620000b0565b5b620001ef84828562000180565b509392505050565b600082601f8301126200020f576200020e620000ab565b5b815162000221848260208601620001ac565b91505092915050565b600060208284031215620002435762000242620000a1565b5b600082015167ffffffffffffffff811115620002645762000263620000a6565b5b6200027284828501620001f7565b91505092915050565b600081519050919050565b7f4e487b7100000000000000000000000000000000000000000000000000000000600052602260045260246000fd5b60006002820490506001821680620002ce57607f821691505b602082108103620002e457620002e362000286565b5b50919050565b60008190508160005260206000209050919050565b60006020601f8301049050919050565b600082821b905092915050565b6000600883026200034e7fffffffffffffffffffffffffffffffffffffffffffffffffffffffffffffffff826200030f565b6200035a86836200030f565b95508019841693508086168417925050509392505050565b6000819050919050565b6000819050919050565b6000620003a7620003a16200039b8462000372565b6200037c565b62000372565b9050919050565b6000819050919050565b620003c38362000386565b620003db620003d282620003ae565b8484546200031c565b825550505050565b600090565b620003f2620003e3565b620003ff818484620003b8565b505050565b5b8181101562000427576200041b600082620003e8565b60018101905062000405565b5050565b601f82111562000476576200044081620002ea565b6200044b84620002ff565b810160208510156200045b578190505b620004736200046a85620002ff565b83018262000404565b50505b505050565b600082821c905092915050565b60006200049b600019846008026200047b565b1980831691505092915050565b6000620004b6838362000488565b9150826002028217905092915050565b620004d1826200027b565b67ffffffffffffffff811115620004ed57620004ec620000c6565b5b620004f98254620002b5565b620005068282856200042b565b600060209050601f8311600181146200053e576000841562000529578287015190505b620005358582620004a8565b865550620005a5565b601f1984166200054e86620002ea565b60005b82811015620005785784890151825560018201915060208501945060208101905062000551565b8683101562000598578489015162000594601f89168262000488565b8355505b6001600288020188555050505b505050505050565b610a3680620005bd6000396000f3fe608060405234801561001057600080fd5b50600436106100575760003560e01c806319ff1d211461005c578063428ebb4a1461007a5780638da9b77214610096578063954ab4b2146100b4578063bc8533bd146100d2575b600080fd5b6100646100f0565b60405161007191906104fe565b60405180910390f35b610094600480360381019061008f9190610669565b61017e565b005b61009e6101d0565b6040516100ab91906104fe565b60405180910390f35b6100bc610262565b6040516100c991906104fe565b60405180910390f35b6100da6102f0565b6040516100e791906104fe565b60405180910390f35b600080546100fd906106e1565b80601f0160208091040260200160405190810160405280929190818152602001828054610129906106e1565b80156101765780601f1061014b57610100808354040283529160200191610176565b820191906000526020600020905b81548152906001019060200180831161015957829003601f168201915b505050505081565b6101bd6040518060400160405280601081526020017f536179206e6f7720736179733a2025730000000000000000000000000000000081525082610382565b80600190816101cc91906108c8565b5050565b6060600080546101df906106e1565b80601f016020809104026020016040519081016040528092919081815260200182805461020b906106e1565b80156102585780601f1061022d57610100808354040283529160200191610258565b820191906000526020600020905b81548152906001019060200180831161023b57829003601f168201915b5050505050905090565b6001805461026f906106e1565b80601f016020809104026020016040519081016040528092919081815260200182805461029b906106e1565b80156102e85780601f106102bd576101008083540402835291602001916102e8565b820191906000526020600020905b8154815290600101906020018083116102cb57829003601f168201915b505050505081565b6060600180546102ff906106e1565b80601f016020809104026020016040519081016040528092919081815260200182805461032b906106e1565b80156103785780601f1061034d57610100808354040283529160200191610378565b820191906000526020600020905b81548152906001019060200180831161035b57829003601f168201915b5050505050905090565b61041a828260405160240161039892919061099a565b6040516020818303038152906040527f4b5c4277000000000000000000000000000000000000000000000000000000007bffffffffffffffffffffffffffffffffffffffffffffffffffffffff19166020820180517bffffffffffffffffffffffffffffffffffffffffffffffffffffffff838183161783525050505061041e565b5050565b6104358161042d610438610459565b63ffffffff16565b50565b60006a636f6e736f6c652e6c6f679050600080835160208501845afa505050565b610464819050919050565b61046c6109d1565b565b600081519050919050565b600082825260208201905092915050565b60005b838110156104a857808201518184015260208101905061048d565b60008484015250505050565b6000601f19601f8301169050919050565b60006104d08261046e565b6104da8185610479565b93506104ea81856020860161048a565b6104f3816104b4565b840191505092915050565b6000602082019050818103600083015261051881846104c5565b905092915050565b6000604051905090565b600080fd5b600080fd5b600080fd5b600080fd5b7f4e487b7100000000000000000000000000000000000000000000000000000000600052604160045260246000fd5b610576826104b4565b810181811067ffffffffffffffff821117156105955761059461053e565b5b80604052505050565b60006105a8610520565b90506105b4828261056d565b919050565b600067ffffffffffffffff8211156105d4576105d361053e565b5b6105dd826104b4565b9050602081019050919050565b82818337600083830152505050565b600061060c610607846105b9565b61059e565b90508281526020810184848401111561062857610627610539565b5b6106338482856105ea565b509392505050565b600082601f8301126106505761064f610534565b5b81356106608482602086016105f9565b91505092915050565b60006020828403121561067f5761067e61052a565b5b600082013567ffffffffffffffff81111561069d5761069c61052f565b5b6106a98482850161063b565b91505092915050565b7f4e487b7100000000000000000000000000000000000000000000000000000000600052602260045260246000fd5b600060028204905060018216806106f957607f821691505b60208210810361070c5761070b6106b2565b5b50919050565b60008190508160005260206000209050919050565b60006020601f8301049050919050565b600082821b905092915050565b6000600883026107747fffffffffffffffffffffffffffffffffffffffffffffffffffffffffffffffff82610737565b61077e8683610737565b95508019841693508086168417925050509392505050565b6000819050919050565b6000819050919050565b60006107c56107c06107bb84610796565b6107a0565b610796565b9050919050565b6000819050919050565b6107df836107aa565b6107f36107eb826107cc565b848454610744565b825550505050565b600090565b6108086107fb565b6108138184846107d6565b505050565b5b818110156108375761082c600082610800565b600181019050610819565b5050565b601f82111561087c5761084d81610712565b61085684610727565b81016020851015610865578190505b61087961087185610727565b830182610818565b50505b505050565b600082821c905092915050565b600061089f60001984600802610881565b1980831691505092915050565b60006108b8838361088e565b9150826002028217905092915050565b6108d18261046e565b67ffffffffffffffff8111156108ea576108e961053e565b5b6108f482546106e1565b6108ff82828561083b565b600060209050601f8311600181146109325760008415610920578287015190505b61092a85826108ac565b865550610992565b601f19841661094086610712565b60005b8281101561096857848901518255600182019150602085019450602081019050610943565b868310156109855784890151610981601f89168261088e565b8355505b6001600288020188555050505b505050505050565b600060408201905081810360008301526109b481856104c5565b905081810360208301526109c881846104c5565b90509392505050565b7f4e487b7100000000000000000000000000000000000000000000000000000000600052605160045260246000fdfea2646970667358221220bd760ab157cc20837d0c5043ddd620e8f11687fbdd00a7084bf59501da64509564736f6c63430008130033",
  "linkReferences": {},
  "deployedLinkReferences": {}
}